:100000000C948A000C94A9000C94A9000C94A900EB
:100010000C94A9000C94A9000C94A9000C94A900BC
:100020000C94A9000C94A9000C94A9000C94A900AC
:100030000C94A9000C94A9000C94A9000C94A9009C
:100040000C94A9000C94A9000C94A9000C94A9008C
:100050000C94A9000C94AB000C94A9000C94A9007A
:100060000C94A9000C94A9000C94A9000C94A9006C
:100070000C94A9000C94A9000C94A9000C94A9005C
:100080000C94A9000C94A9000C94A900001F000076
:1000900000001F00001F101010101F00001F181874
:1000A00018181F00001F1C1C1C1C1F00001F1E1EF8
:1000B0001E1E1F00001F1F1F1F1F1F0003070F1FF3
:1000C0000F070300001F1F1F1F1F1F001B1B1B1BF1
:1000D0001B1B1B00181C1E1F1E1C18000004040EF6
:1000E0000E1F1F00001F1F0E0E0404000000000062
:1000F00000000000000E1915130E0000000E15156B
:10010000150E0000000E1315190E0000000E111F31
:10011000110E000011241FBECFEFD0E1DEBFCDBF16
:1001200011E0A0E0B1E0EAE2F0E100E00BBF02C0C4
:1001300007900D92A032B107D9F721E0A0E2B1E01B
:1001400001C01D92A232B207E1F70E9438040C945C
:1001500013080C9400001F920F920FB60F921124F7
:100160008F939F93F89484B195B1909321018093DC
:10017000200178949F918F910F900FBE0F901F9048
:100180001895E5E6F0E080818D7F808380818E7F09
:10019000808380818B7F8083E4E6F0E080818260D1
:1001A000808380818160808380818460808384B348
:1001B0008F7084BB85B3806F85BB08958FE39FE10B
:1001C0000197F1F700C000000895EFE3FFE13197D8
:1001D000F1F700C00000E5E6F0E090819D7F90839C
:1001E00090819E7F908390819460908394B3906F70
:1001F00094BB95B39F70282F207F922B95BB000056
:1002000000000000000000000000000000000000EE
:1002100000000000000000000000000000000000DE
:1002200000000000000000000000000000009081BD
:100230009B7F908300000000000000000000000091
:1002400000000000000000000000000000000000AE
:10025000000000000000000000000000000000009E
:100260000000000090819460908325B32F7030E1EE
:10027000839FC0011124822B85BB00000000000079
:10028000000000000000000000000000000000006E
:10029000000000000000000000000000000000005E
:1002A0000000000000000000000080818B7F808340
:1002B00084B38F7084BB85B3806F85BB08958FE353
:1002C0009FE10197F1F700C0000084B38F7084BBF9
:1002D00085B3806F85BBE5E6F0E080818D7F80830C
:1002E0008081816080838081846080830000000041
:1002F00000000000000000000000000000000000FE
:1003000000000000000000000000000000000000ED
:1003100000000000000000000000000093B3808196
:100320008B7F8083000000000000000000000000C0
:1003300000000000000000000000000000000000BD
:1003400000000000000000000000000000000000AD
:1003500000000000808184608083000000000000B5
:10036000000000000000000000000000000000008D
:10037000000000000000000000000000000000007D
:100380000000000000000000000023B322952F7041
:10039000892F807F90819B7F9083822B0895EFE34C
:1003A000FFE13197F1F700C00000E5E6F0E0908151
:1003B0009260908390819E7F9083908194609083DF
:1003C00094B3906F94BB95B39F70282F207F922B8E
:1003D00095BB0000000000000000000000000000CD
:1003E000000000000000000000000000000000000D
:1003F00000000000000000000000000000000000FD
:10040000000090819B7F90830000000000000000AE
:1004100000000000000000000000000000000000DC
:1004200000000000000000000000000000000000CC
:10043000000000000000000090819460908325B3CC
:100440002F7030E1839FC0011124822B85BB0000F7
:10045000000000000000000000000000000000009C
:10046000000000000000000000000000000000008C
:10047000000000000000000000000000000080817B
:100480008B7F808384B38F7084BB85B3806F85BB83
:1004900008958FE39FE10197F1F700C0000084B356
:1004A0008F7084BB85B3806F85BBE5E6F0E080810B
:1004B000826080838081816080838081846080838A
:1004C000000000000000000000000000000000002C
:1004D000000000000000000000000000000000001C
:1004E000000000000000000000000000000000000C
:1004F00093B380818B7F80830000000000000000A8
:1005000000000000000000000000000000000000EB
:1005100000000000000000000000000000000000DB
:1005200000000000000000008081846080830000E3
:1005300000000000000000000000000000000000BB
:1005400000000000000000000000000000000000AB
:10055000000000000000000000000000000023B3C5
:1005600022952F70892F807F90819B7F9083822B93
:10057000089582E00C94E50081E00C94E50062307F
:1005800031F0633031F0613029F4805C03C08C5E5F
:1005900001C08C5A80680C94E500CF92DF92EF92F4
:1005A000FF921F93CF93DF93C82ED62F0E945F0137
:1005B000182F1F77DD0FDD0FDD0FCC0CCC0CCC0C12
:1005C000D12CE12CF12C8EEBC80ED11C81E0E81E61
:1005D000F11CC0E08D2F8C0F80640E94E500EBBE03
:1005E000F60187910E94CF01CF5F8FEFC81AD80A1A
:1005F000E80AF80AC83071F7812F8068DF91CF913F
:100600001F91FF90EF90DF90CF900C94E5000E9437
:10061000C10088E20E94E50081E00E94E5002FEF22
:100620008DEE92E0215080409040E1F700C0000044
:1006300086E00E94E5008CE00E94E50082E00E94D6
:10064000E50080E80E94E50060E080E00E94CD02C5
:1006500061E081E00E94CD0262E082E00E94CD0272
:1006600063E083E00E94CD0264E084E00E94CD025A
:1006700065E085E00E94CD0266E086E00E94CD0242
:1006800067E087E00C94CD020F931F93CF93DF9325
:10069000009759F0EC018C01060F111DC017D1070E
:1006A00021F089910E94CF01F9CFDF91CF911F9165
:1006B0000F9108951F93CF93DF93009761F0EC01A2
:1006C00010E0FE01E10FF11D8081882321F00E94DE
:1006D000CF011F5FF6CFDF91CF911F9108958F92C9
:1006E0009F92AF92BF92CF92DF92EF92FF921F93B1
:1006F000CF93DF93142F46E0489F9001499F300D20
:100700001124129FC001139F900D11240E94F40424
:100710006B01E12CF12CC701B60126E030E040E08E
:1007200050E00E940805D62F812C912C5401C0E086
:10073000C117E9F0D501C4010596A11DB11DC81668
:10074000D906EA06FB0638F4C814D904EA04FB0407
:1007500020F480E003C085E001C08D2F0E94CF010E
:10076000CF5F86E0880E911CA11CB11CE1CFDF9108
:10077000CF911F91FF90EF90DF90CF90BF90AF90FF
:100780009F908F9008951BB888E18AB986E1809385
:1007900095001092900087E089B908955D9BFECF87
:1007A0008CB980E090E008955F9BFECF8CB190E023
:1007B00008950F931F93CF93DF93EC018C010A50A0
:1007C0001E4F8991882339F060E070E00E94CE03CB
:1007D000C017D107B1F7DF91CF911F910F91089505
:1007E000EF92FF920F931F93CF93DF9300D000D02F
:1007F000CDB7DEB720E330E03A8329831C821B8229
:100800009E012F5F3F4F79018823A9F0F90120E075
:1008100030E0AAE06A2F0E94E804905D9193A9015C
:100820004F5F5F4F882311F09A01F4CFF701E40F77
:10083000F51F108202C020E030E02F5F3F4F87019C
:10084000020F131FE016F10641F060E070E0F801BE
:1008500082918F010E94CE03F5CF0F900F900F90E1
:100860000F90DF91CF911F910F91FF90EF9008951E
:10087000CF93DF93CDB7DEB76A970FB6F894DEBF9C
:100880000FBECDBF8AE0E0E0F1E0DE0151960190BD
:100890000D928A95E1F78FEF8ABB80E187BB82E6F4
:1008A00083BF12BE80E487B98FEA86B9369A7894FE
:1008B0000E94070360E080E00E94BF026CE08AE0D3
:1008C00091E00E94440399249A948CEBA82E82E034
:1008D000B82E94E9C92E92E0D92E29E0822E37E174
:1008E000E32E31E0F32E8E010F5F1F4F2091200188
:1008F00030912101929EC001939E900D1124885D3C
:100900009742B5010E94F40461BF8091200190914B
:100910002101889718F411BE89892EC08091200189
:10092000909121018D3B924018F091BE8A8D24C098
:100930002091200130912101929EC001939E900D43
:100940001124885D9742B6010E94F40461BF209192
:10095000200130912101829EC001839E900D1124BF
:1009600088569140B6010E94F404E1E1F0E0EC0FFA
:10097000FD1FE60FF71F80818BBB809120019091B6
:1009800021019F938F93FF92EF921F930F930E94E9
:100990002A0561E080E00E94BF02F801019000207A
:1009A000E9F73197BF01601B710BC8010E94440336
:1009B0008FEF93EC29E0815090402040E1F700C098
:1009C00000000F900F900F900F900F900F908ECF10
:1009D000991B79E004C0991F961708F0961B881F91
:1009E0007A95C9F780950895AA1BBB1B51E107C0F2
:1009F000AA1FBB1FA617B70710F0A61BB70B881FAF
:100A0000991F5A95A9F780959095BC01CD0108953D
:100A1000A1E21A2EAA1BBB1BFD010DC0AA1FBB1F02
:100A2000EE1FFF1FA217B307E407F50720F0A21B74
:100A3000B30BE40BF50B661F771F881F991F1A94E1
:100A400069F760957095809590959B01AC01BD010B
:100A5000CF0108950F931F93CF93DF93CDB7DEB7E8
:100A60002E970FB6F894DEBF0FBECDBF0D891E893D
:100A700086E08C831A8309838FEF9FE79E838D83A3
:100A8000AE01475E5F4F6F89788DCE0101960E945F
:100A90005905EF81F885E00FF11F10822E960FB6F1
:100AA000F894DEBF0FBECDBFDF91CF911F910F91A4
:100AB00008952F923F924F925F926F927F928F9202
:100AC0009F92AF92BF92CF92DF92EF92FF920F93DD
:100AD0001F93CF93DF93CDB7DEB72B970FB6F89464
:100AE000DEBF0FBECDBF6C017B018A01FC01178206
:100AF0001682838181FFCCC1CE0101963C01F601B3
:100B00009381F70193FD859193FF81917F01882364
:100B100009F4BAC1853239F493FD859193FF81912F
:100B20007F01853229F4B60190E00E947907E7CF72
:100B3000912C212C312CFFE1F315D8F08B3279F078
:100B400038F4803279F08332A1F4232D20611DC066
:100B50008D3261F0803369F4232D216016C0832D1E
:100B60008260382EE32DE4603E2E2AC0F32DF8601B
:100B70001DC037FC2DC020ED280F2A3040F08E32EA
:100B8000B9F436FC81C1232D2064322E19C036FE03
:100B900006C08AE0989E200D1124922E11C0EAE032
:100BA0002E9E200D1124222EF32DF0623F2E08C020
:100BB0008C3621F4832D8068382E02C0883641F4AB
:100BC000F70193FD859193FF81917F018111B3CF4F
:100BD000982F9F7D9554933028F40C5F1F4F9FE30F
:100BE00099830DC0833631F0833771F0833509F076
:100BF00059C021C0F801808189830E5F1F4F88246E
:100C00008394912C530113C02801F2E04F0E511C24
:100C1000F801A080B18036FE03C0692D70E002C0EB
:100C20006FEF7FEFC5010E946E074C018201F32D2B
:100C3000FF773F2E16C0280122E0420E511CF8011A
:100C4000A080B18036FE03C0692D70E002C06FEF56
:100C50007FEFC5010E9463074C01F32DF0683F2E22
:100C6000820133FC1BC0822D90E088169906B0F4F7
:100C7000B60180E290E00E9479072A94F4CFF50152
:100C800037FC859137FE81915F01B60190E00E94AB
:100C9000790721102A9421E0821A91088114910485
:100CA00071F7E8C0843611F0893641F5F80137FE56
:100CB00007C060817181828193810C5F1F4F08C0E2
:100CC00060817181072E000C880B990B0E5F1F4FFE
:100CD000F32DFF763F2E97FF09C090958095709574
:100CE00061957F4F8F4F9F4FF0683F2E2AE030E095
:100CF000A3010E94B507882E861845C0853731F4B8
:100D0000232D2F7EB22E2AE030E025C0932D997F2F
:100D1000B92E8F36C1F018F4883579F0B5C0803718
:100D200019F0883721F0B0C0E92FE061BE2EB4FE83
:100D30000DC0FB2DF460BF2E09C034FE0AC0292F60
:100D40002660B22E06C028E030E005C020E130E089
:100D500002C020E132E0F801B7FE07C06081718176
:100D6000828193810C5F1F4F06C06081718180E09A
:100D700090E00E5F1F4FA3010E94B507882E8618D2
:100D8000FB2DFF773F2E36FE0DC0232D2E7FA22E8A
:100D9000891458F434FE0BC032FC09C0832D8E7EBA
:100DA000A82E05C0B82CA32C03C0B82C01C0B92CA8
:100DB000A4FE0FC0FE01E80DF11D8081803321F4F7
:100DC0009A2D997EA92E09C0A2FE06C0B394B394B1
:100DD00004C08A2D867809F0B394A3FC11C0A0FE4C
:100DE00006C0B21488F4280C922C9B180EC0B214C2
:100DF00060F4B60180E290E00E947907B394F7CFE7
:100E0000B21418F42B1802C0982C212CA4FE10C088
:100E1000B60180E390E00E947907A2FE17C0A1FC12
:100E200003C088E790E002C088E590E0B6010CC0FE
:100E30008A2D867859F0A1FE02C08BE201C080E2C3
:100E4000A7FC8DE2B60190E00E947907891438F47E
:100E5000B60180E390E00E9479079A94F7CF8A94D4
:100E6000F301E80DF11D8081B60190E00E94790741
:100E70008110F5CF222009F442CEB60180E290E045
:100E80000E9479072A94F6CFF6018681978102C0E5
:100E90008FEF9FEF2B960FB6F894DEBF0FBECDBF3E
:100EA000DF91CF911F910F91FF90EF90DF90CF9046
:100EB000BF90AF909F908F907F906F905F904F907A
:100EC0003F902F900895FC010590615070400110F3
:100ED000D8F7809590958E0F9F1F0895FC01615063
:100EE000704001900110D8F7809590958E0F9F1F4C
:100EF00008950F931F93CF93DF93FB01238121FD6F
:100F000003C08FEF9FEF2CC022FF16C04681578190
:100F1000248135814217530744F4A081B1819D019A
:100F20002F5F3F4F318320838C93268137812F5F42
:100F30003F4F3783268314C08B01EC01FB010084F3
:100F4000F185E02D0995892BE1F6D80116968D9152
:100F50009C911797019617969C938E931697CE01A6
:100F6000DF91CF911F910F910895FA01AA272830A0
:100F700051F1203181F1E8946F936E7F6E5F7F4F66
:100F80008F4F9F4FAF4FB1E03ED0B4E03CD0670FE2
:100F9000781F891F9A1FA11D680F791F8A1F911D35
:100FA000A11D6A0F711D811D911DA11D20D009F485
:100FB00068943F912AE0269F11243019305D3193C7
:100FC000DEF6CF010895462F4770405D4193B3E0B0
:100FD0000FD0C9F7F6CF462F4F70405D4A3318F057
:100FE000495D31FD4052419302D0A9F7EACFB4E008
:100FF000A6959795879577956795BA95C9F70097C0
:101000006105710508959B01AC010A2E0694579560
:10101000479537952795BA95C9F7620F731F841FB7
:0A102000951FA01D0895F894FFCF5E
:10102A003F065B4F666D7D077F6F4C69676874206A
:10103A0053656E736F72004C3A25752020200000AC
:00000001FF
