:100000000C948A000C94A1000C94A1000C94A10003
:100010000C94A1000C94A1000C94A1000C94A100DC
:100020000C94A1000C94A1000C94A1000C94A100CC
:100030000C94A1000C94A1000C94A1000C94A100BC
:100040000C94A1000C94A1000C94A1000C94A100AC
:100050000C94A1000C94A1000C94A1000C94A1009C
:100060000C94A1000C94A1000C94A1000C94A1008C
:100070000C94A1000C94A1000C94A1000C94A1007C
:100080000C94A1000C94A1000C94A100001F00008E
:1000900000001F00001F101010101F00001F181874
:1000A00018181F00001F1C1C1C1C1F00001F1E1EF8
:1000B0001E1E1F00001F1F1F1F1F1F0003070F1FF3
:1000C0000F070300001F1F1F1F1F1F001B1B1B1BF1
:1000D0001B1B1B00181C1E1F1E1C18000004040EF6
:1000E0000E1F1F00001F1F0E0E0404000000000062
:1000F00000000000000E1915130E0000000E15156B
:10010000150E0000000E1315190E0000000E111F31
:10011000110E000011241FBECFEFD0E1DEBFCDBF16
:1001200011E0A0E0B1E0EEECF2E100E00BBF02C0B4
:1001300007900D92A230B107D9F70E943D070C94A9
:1001400065090C94000087B3876087BBC09A80E57F
:100150008DB91EB80895C09886E08FB9779BFECF01
:10016000C09A089595E0C0989FB9779BFECF1FB8BD
:10017000779BFECF8FB11FB8779BFECFC09A80FDD3
:10018000F2CF08951F93CF93DF93D82F192FC62F47
:100190000E94AB00C09882E08FB9779BFECF1FB959
:1001A000779BFECFDFB9779BFECFCFB9779BFECF92
:1001B000C09ADF91CF911F910C94B200C09823E0B8
:1001C0002FB9779BFECF9FB9779BFECF8FB9779BD7
:1001D000FECF1FB8779BFECF8FB1C09A0895FF92D4
:1001E0000F931F93CF93DF93EC01F62E072F142F5D
:1001F0000E94AB00C09882E08FB9779BFECFDFB939
:10020000779BFECFCFB9779BFECFEF2DF02FCE1B84
:10021000DF0B112349F081918FB9779BFECFCE017F
:100220008E0F9F1F811108C0C09ADF91CF911F913F
:100230000F91FF900C94B2001150EBCFC09823E0C7
:100240002FB9779BFECF9FB9779BFECF8FB9779B56
:10025000FECFFB01861B970B442351F01FB8779B01
:10026000FECF2FB121939C012E0F3F1F211102C001
:10027000C09A08954150F0CFE5E6F0E080818D7F8F
:10028000808380818E7F808380818B7F8083E4E682
:10029000F0E08081826080838081816080838081C2
:1002A0008460808384B38F7084BB85B3806F85BB8B
:1002B00008958FE39FE10197F1F700C000000895D2
:1002C000EFE3FFE13197F1F700C00000E5E6F0E071
:1002D00090819D7F908390819E7F90839081946098
:1002E000908394B3906F94BB95B39F70282F207F19
:1002F000922B95BB000000000000000000000000F1
:1003000000000000000000000000000000000000ED
:1003100000000000000000000000000000000000DD
:100320000000000090819B7F90830000000000008F
:1003300000000000000000000000000000000000BD
:1003400000000000000000000000000000000000AD
:100350000000000000000000000090819460908385
:1003600025B32F7030E1839FC0011124822B85BB00
:10037000000000000000000000000000000000007D
:10038000000000000000000000000000000000006D
:10039000000000000000000000000000000000005D
:1003A00080818B7F808384B38F7084BB85B3806FA3
:1003B00085BB08958FE39FE10197F1F700C000002E
:1003C00084B38F7084BB85B3806F85BBE5E6F0E0B6
:1003D00080818D7F80838081816080838081846043
:1003E000808300000000000000000000000000000A
:1003F00000000000000000000000000000000000FD
:1004000000000000000000000000000000000000EC
:10041000000093B380818B7F808300000000000088
:1004200000000000000000000000000000000000CC
:1004300000000000000000000000000000000000BC
:1004400000000000000000000000808184608083C4
:10045000000000000000000000000000000000009C
:10046000000000000000000000000000000000008C
:10047000000000000000000000000000000000007C
:1004800023B322952F70892F807F90819B7F90834B
:10049000822B0895EFE3FFE13197F1F700C00000F0
:1004A000E5E6F0E090819260908390819E7F90835A
:1004B00090819460908394B3906F94BB95B39F7038
:1004C000282F207F922B95BB000000000000000029
:1004D000000000000000000000000000000000001C
:1004E000000000000000000000000000000000000C
:1004F000000000000000000090819B7F90830000BE
:1005000000000000000000000000000000000000EB
:1005100000000000000000000000000000000000DB
:1005200000000000000000000000000000009081BA
:100530009460908325B32F7030E1839FC001112414
:10054000822B85BB000000000000000000000000BE
:10055000000000000000000000000000000000009B
:10056000000000000000000000000000000000008B
:100570000000000080818B7F808384B38F7084BBF8
:1005800085B3806F85BB08958FE39FE10197F1F7F5
:1005900000C0000084B38F7084BB85B3806F85BBBF
:1005A000E5E6F0E0808182608083808181608083E5
:1005B0008081846080830000000000000000000053
:1005C000000000000000000000000000000000002B
:1005D000000000000000000000000000000000001B
:1005E00000000000000093B380818B7F80830000B7
:1005F00000000000000000000000000000000000FB
:1006000000000000000000000000000000000000EA
:1006100000000000000000000000000000008081D9
:1006200084608083000000000000000000000000E3
:1006300000000000000000000000000000000000BA
:1006400000000000000000000000000000000000AA
:100650000000000023B322952F70892F807F9081A6
:100660009B7F9083822B089582E00C94600181E04F
:100670000C946001623031F0633031F0613029F464
:10068000805C03C08C5E01C08C5A80680C94600151
:10069000CF92DF92EF92FF921F93CF93DF93C82EFA
:1006A000D62F0E94DA01182F1F77DD0FDD0FDD0F27
:1006B000CC0CCC0CCC0CD12CE12CF12C8EEBC80E3C
:1006C000D11C81E0E81EF11CC0E08D2F8C0F8064EE
:1006D0000E946001EBBEF60187910E944A02CF5F43
:1006E0008FEFC81AD80AE80AF80AC83071F7812FC4
:1006F0008068DF91CF911F91FF90EF90DF90CF90B6
:100700000C9460010E943C0188E20E94600181E03B
:100710000E9460012FEF8DEE92E0215080409040CA
:10072000E1F700C0000086E00E9460018CE00E94BA
:10073000600182E00E94600180E80E94600160E048
:1007400080E00E94480361E081E00E94480362E08B
:1007500082E00E94480363E083E00E94480364E073
:1007600084E00E94480365E085E00E94480366E05B
:1007700086E00E94480367E087E00C9448030F93EB
:100780001F93CF93DF93009759F0EC018C01060F74
:10079000111DC017D10721F089910E944A02F9CF9B
:1007A000DF91CF911F910F9108951F93CF93DF9306
:1007B000009761F0EC0110E0FE01E10FF11D808176
:1007C000882321F00E944A021F5FF6CFDF91CF916C
:1007D0001F9108958F929F92AF92BF92CF92DF9216
:1007E000EF92FF921F93CF93DF93142F46E0489F21
:1007F0009001499F300D1124129FC001139F900D4D
:1008000011240E94C7076B01E12CF12CC701B6012E
:1008100026E030E040E050E00E94DB07D62F812C3C
:10082000912C5401C0E0C117E9F0D501C40105962F
:10083000A11DB11DC816D906EA06FB0638F4C81476
:10084000D904EA04FB0420F480E003C085E001C081
:100850008D2F0E944A02CF5F86E0880E911CA11C5A
:10086000B11CE1CFDF91CF911F91FF90EF90DF900E
:10087000CF90BF90AF909F908F900895382FFC013C
:1008800080E051E39E2F931B961770F49191892776
:1008900098E0282F220F87FF03C0822F852701C0F1
:1008A000822F9150B1F7EECF841302C080E00895FB
:1008B00084E00895EF92FF921F93CF93DF931F92EE
:1008C000CDB7DEB77C010E945E06182F80E80E943B
:1008D0008906182B87EE0E947406182B0E945E066C
:1008E000182B81E80E948906182B60E0C7010E943E
:1008F000A206182B61E0CE0101960E94A206182BD9
:10090000498161E0C7010E943E04182B0E947006D5
:10091000812F0F90DF91CF911F91FF90EF9008955D
:100920000F931F93CF938C010E945E06C82F80E81F
:100930000E948906C82B86EE0E947406C82BF80117
:1009400080810E947406C82B0E9470068C2FCF9164
:100950001F910F910895CF92DF92EF92FF921F9314
:10096000CF93DF9300D01F92CDB7DEB76C017B0130
:100970000E945E06182F80E80E948906182BC11479
:10098000D10429F0CA94CD2831F483EE01C085EE5C
:100990000E947406182B0E945E06182B81E80E94A4
:1009A0008906182B60E0CE0101960E94A206182B42
:1009B00060E0CE0102960E94A206182B8981F70101
:1009C00081838A81808361E0CE0103960E94A20622
:1009D000182B4B8162E0CE0101960E943E04182B39
:1009E0000E947006812F0F900F900F90DF91CF9192
:1009F0001F91FF90EF90DF90CF900895EF92FF92BC
:100A00000F931F93CF93DF9300D01F92CDB7DEB724
:100A10008C017B010E945E0680E80E948906011518
:100A2000110521F00130110531F003C085EF0E945E
:100A3000740600E007C083EFFACF81E80E948906C0
:100A40008F3F69F00E945E06182F8FE39CE90197A3
:100A5000F1F700C000000F5F053179F702C00431E3
:100A600009F4126060E0CE0101960E94A206182BE4
:100A700060E0CE0102960E94A206182B8981F70140
:100A800081838A81808361E0CE0103960E94A20661
:100A9000182B4B8162E0CE0101960E943E04182B78
:100AA0000E947006812F0F900F900F90DF91CF91D1
:100AB0001F910F91FF90EF900895CF930E945E06D3
:100AC000C82F80E80E948906C82B8EEF0E9474060A
:100AD000C82B0E9470068FE59AEE0197F1F700C0CF
:100AE00000008C2FCF9108958C7FBC0180E090E0B6
:100AF0000E946A0820E030E04AEF5AE30E94F808BA
:100B000020E030E040EC50E40E94FD0708958C7F27
:100B1000BC0180E090E00E946A0822E538EB4FE2D9
:100B20005BE30E94F80826E636E64BE352E40E94B7
:100B3000FD070895EF92FF921F93CF93DF931F92CB
:100B4000CDB7DEB77C010E945E0680E80E94890670
:100B50008AEF0E9474068FE00E9474060E945E066F
:100B600081E80E94890660E0C70105960E94A206FE
:100B700060E0CE0101960E94A20660E0C7010496E3
:100B80000E94A20660E0CE0101960E94A20660E0EB
:100B9000C70103960E94A20660E0CE0101960E9462
:100BA000A20660E0C70102960E94A20661E0CE01A3
:100BB00001960E94A2060E9470060E945E0680E8CE
:100BC0000E9489068CEF0E94740689EC0E947406CC
:100BD0000E945E06182F81E80E948906182B60E0AB
:100BE000C70101960E94A206182B60E0C7010E946F
:100BF000A206182B60E0CE0101960E94A206182BD7
:100C000060E0C70107960E94A206182B60E0C701AA
:100C100006960E94A206182B61E0CE0101960E9462
:100C2000A206182B0E947006812F0F90DF91CF91A2
:100C30001F91FF90EF900895FF920F931F93CF9312
:100C4000DF93CDB7DEB729970FB6F894DEBF0FBE9E
:100C5000CDBF0E945D05F82ECE0101960E949A0537
:100C6000082FCE0109960E945A04182F99859E7765
:100C700090689987CE0109960E949004998596FD07
:100C800004C00F29102B812B01C080E129960FB6DB
:100C9000F894DEBF0FBECDBFDF91CF911F910F91B2
:100CA000FF90089581E48093700084E08093740045
:100CB00008958091740087FFFCCF089584EA8093A3
:100CC00074000E94590680917100883039F080913B
:100CD0007100803119F08091710008958FEF0895AF
:100CE00084E9809374000895CF93C82F0E94590619
:100CF000C093730084E8809374000E945906809129
:100D00007100883219F08091710001C08FEFCF918E
:100D10000895CF93C82F0E945906C093730084E8AA
:100D2000809374000E94590680917100883139F0D7
:100D300080917100803419F08091710001C08FEFB3
:100D4000CF9108950F931F93CF938C01C62F0E94CC
:100D50005906CC2311F084E801C084EC8093740020
:100D60000E94590680917300F80180838091710080
:100D7000883511F4CC2339F080917100803519F059
:100D80008091710001C08FEFCF911F910F91089555
:100D90001BB888E18AB986E1809395001092900093
:100DA00087E089B908955D9BFECF8CB980E090E023
:100DB00008955F9BFECF8CB190E008950F931F9331
:100DC000CF93DF93EC018C010A501E4F8991882349
:100DD00039F060E070E00E94D306C017D107B1F788
:100DE000DF91CF911F910F910895EF92FF920F9392
:100DF0001F93CF93DF9300D000D0CDB7DEB720E3B1
:100E000030E03A8329831C821B829E012F5F3F4F73
:100E100079018823A9F0F90120E030E0AAE06A2FE7
:100E20000E94BB07905D9193A9014F5F5F4F88239C
:100E300011F09A01F4CFF701E40FF51F108202C000
:100E400020E030E02F5F3F4F8701020F131FE016B5
:100E5000F10641F060E070E0F80182918F010E949C
:100E6000D306F5CF0F900F900F900F90DF91CF9199
:100E70001F910F91FF90EF900895CF93DF93CDB71F
:100E8000DEB7EC970FB6F894DEBF0FBECDBF84E19E
:100E90007E0129E2E20EF11CF701282F11922A951A
:100EA000E9F76E0195E1C90ED11CF601282F1192C8
:100EB0002A95E9F78E010F5F1F4FF80111928A956D
:100EC000E9F70E94A3000E94820344E1B70180E099
:100ED00091E00E941E0144E1B60180E092E00E9490
:100EE0001E0144E1B80180E093E00E941E014E0122
:100EF000F2E38F0E911C60E080E00E943A035701FC
:100F0000F50181915F010E944A02FFEF21EE84E02A
:100F1000F15020408040E1F700C00000A814B9045F
:100F200079F761E080E00E943A03B12CF601EB0D05
:100F3000F11D8081882369F00E944A02B3949FEFDB
:100F4000E1EEF4E09150E040F040E1F700C0000035
:100F5000EDCF60E00E943A03C8010E94D5032FEF55
:100F600087EA91E6215080409040E1F700C0000000
:100F70000E943703C0CF991B79E004C0991F9617D0
:100F800008F0961B881F7A95C9F780950895AA1BCB
:100F9000BB1B51E107C0AA1FBB1FA617B70710F064
:100FA000A61BB70B881F991F5A95A9F78095909596
:100FB000BC01CD010895A1E21A2EAA1BBB1BFD01A5
:100FC0000DC0AA1FBB1FEE1FFF1FA217B307E40728
:100FD000F50720F0A21BB30BE40BF50B661F771F80
:100FE000881F991F1A9469F7609570958095909560
:100FF0009B01AC01BD01CF0108955058BB27AA2722
:101000000E9415080C94BE080E94B00838F00E9497
:10101000B70820F039F49F3F19F426F40C94AD087A
:101020000EF4E095E7FB0C94A708E92F0E94CF0887
:1010300058F3BA17620773078407950720F079F40D
:10104000A6F50C94F1080EF4E0950B2EBA2FA02D06
:101050000B01B90190010C01CA01A0011124FF2765
:10106000591B99F0593F50F4503E68F11A16F04060
:10107000A22F232F342F4427585FF3CF469537955F
:101080002795A795F0405395C9F77EF41F16BA0B24
:10109000620B730B840BBAF09150A1F0FF0FBB1FD2
:1010A000661F771F881FC2F70EC0BA0F621F731F1B
:1010B000841F48F4879577956795B795F7959E3F78
:1010C00008F0B0CF9395880F08F09927EE0F979509
:1010D00087950895E89409C097FB3EF49095809514
:1010E000709561957F4F8F4F9F4F9923A9F0F92FEE
:1010F00096E9BB279395F695879577956795B7956C
:10110000F111F8CFFAF4BB0F11F460FF1BC06F5F51
:101110007F4F8F4F9F4F16C0882311F096E911C063
:10112000772321F09EE8872F762F05C0662371F084
:1011300096E8862F70E060E02AF09A95660F771F98
:10114000881FDAF7880F9695879597F9089597F98C
:101150009F6780E870E060E008959FEF80EC08955D
:1011600000240A9416161706180609060895002486
:101170000A9412161306140605060895092E039400
:10118000000C11F4882352F0BB0F40F4BF2B11F474
:1011900060FF04C06F5F7F4F8F4F9F4F089557FDD3
:1011A0009058440F551F59F05F3F71F04795880FD5
:1011B00097FB991F61F09F3F79F08795089512166C
:1011C00013061406551FF2CF4695F1DF08C0161618
:1011D00017061806991FF1CF8695710561050894C9
:1011E0000895E894BB2766277727CB0197F90895E0
:1011F0000E940B090C94BE080E94B00838F00E94AF
:10120000B70820F0952311F00C94A7080C94AD08B2
:1012100011240C94F2080E94CF0870F3959FC1F33B
:10122000950F50E0551F629FF001729FBB27F00D94
:10123000B11D639FAA27F00DB11DAA1F649F6627E9
:10124000B00DA11D661F829F2227B00DA11D621F38
:10125000739FB00DA11D621F839FA00D611D221FF2
:10126000749F3327A00D611D231F849F600D211DD6
:10127000822F762F6A2F11249F5750409AF0F1F059
:1012800088234AF0EE0FFF1FBB1F661F771F881FC2
:1012900091505040A9F79E3F510580F00C94A7084B
:1012A0000C94F2085F3FE4F3983ED4F3869577956B
:1012B0006795B795F795E7959F5FC1F7FE2B880F68
:0E12C000911D9695879597F90895F894FFCFA4
:0212CE003101EC
:00000001FF
