:100000000C9446000C945D000C945D000C945D0013
:100010000C945D000C945D000C945D000C945D00EC
:100020000C945D000C945D000C945D000C945D00DC
:100030000C945D000C945D000C945D000C945D00CC
:100040000C945D000C945D000C945D000C945D00BC
:100050000C945D000C945D000C945D000C945D00AC
:100060000C945D000C945D000C945D000C945D009C
:100070000C945D000C945D000C945D000C945D008C
:100080000C945D000C945D000C945D0011241FBE67
:10009000CFEFD0E1DEBFCDBF11E0A0E0B1E0EAE1FB
:1000A000F1E000E00BBF02C007900D92A431B10750
:1000B000D9F70E945F000C948B000C940000CF9342
:1000C000DF93CDB7DEB763970FB6F894DEBF0FBEF0
:1000D000CDBF83E1E0E0F1E0DE01119601900D92E9
:1000E0008A95E1F78FEF8ABB80E0E1E0F0E0EC0F6A
:1000F000FD1FE80FF11D90819BBB8F5F803109F4DC
:1001000080E02FEF37E893E1215030409040E1F755
:0A01100000C00000EACFF894FFCF12
:10011A003F065B4F666D7C0767077F6F77395E79AD
:04012A0071088000D8
:00000001FF
