:100000000C9446000C9465000C9465000C946500FB
:100010000C9465000C9465000C9465000C946500CC
:100020000C9465000C9465000C9465000C946500BC
:100030000C9465000C9465000C9465000C946500AC
:100040000C9467000C9465000C9465000C9465009A
:100050000C9465000C9465000C9465000C9465008C
:100060000C9465000C9465000C9465000C9465007C
:100070000C9465000C9465000C9465000C9465006C
:100080000C9465000C9465000C94650011241FBE4F
:10009000CFEFD0E1DEBFCDBF11E0A0E0B1E0EEEAEE
:1000A000F1E000E00BBF02C007900D92AA30B1074B
:1000B000D9F721E0AAE0B1E001C01D92AB30B20750
:1000C000E1F70E947F000C94D5000C9400001F9271
:1000D0000F920FB60F9211248F9380910A018F5FB8
:1000E00080930A018F910F900FBE0F901F9018956B
:1000F00087E083BF87B7816087BF78940895CF93E7
:10010000DF93CDB7DEB72A970FB6F894DEBF0FBEE8
:10011000CDBF0E9478008AE0E0E0F1E0DE011196B8
:1001200001900D928A95E1F78FEF8ABB80E090E015
:100130000AE010E020910A012032E0F310920A0157
:100140000196B8010E94AD00E1E0F0E0EC0FFD1F68
:10015000E80FF91F20812BBBEDCF97FB072E16F47C
:10016000009407D077FD09D00E94C10007FC05D09C
:100170003EF4909581959F4F0895709561957F4FBE
:100180000895AA1BBB1B51E107C0AA1FBB1FA617DE
:10019000B70710F0A61BB70B881F991F5A95A9F730
:0E01A00080959095BC01CD010895F894FFCF95
:0A01AE003F065B4F666D7D077F6F13
:00000001FF
