:100000000C948A000C94A9000C94A9000C94A900EB
:100010000C94A9000C94A9000C94A9000C94A900BC
:100020000C94A9000C94A9000C94A9000C94A900AC
:100030000C94A9000C94A9000C94A9000C94A9009C
:100040000C94A9000C94A9000C94A9000C94A9008C
:100050000C94A9000C94A9000C94A9000C94A9007C
:100060000C94A9000C94A9000C94A9000C94A9006C
:100070000C94A9000C94A9000C94A9000C94A9005C
:100080000C94A9000C94A9000C94A900001F000076
:1000900000001F00001F101010101F00001F181874
:1000A00018181F00001F1C1C1C1C1F00001F1E1EF8
:1000B0001E1E1F00001F1F1F1F1F1F0003070F1FF3
:1000C0000F070300001F1F1F1F1F1F001B1B1B1BF1
:1000D0001B1B1B00181C1E1F1E1C18000004040EF6
:1000E0000E1F1F00001F1F0E0E0404000000000062
:1000F00000000000000E1915130E0000000E15156B
:10010000150E0000000E1315190E0000000E111F31
:10011000110E000011241FBECFEFD0E1DEBFCDBF16
:1001200011E0A0E0B1E0EEE0F4E100E00BBF02C0BE
:1001300007900D92AC32B107D9F721E0ACE2B1E003
:1001400001C01D92A033B207E1F70E94BD070C94D5
:10015000050A0C9400001F93CF93DF93EC0167E036
:1001600082E091E00E943F04CE0164E670E00E94CC
:100170003808162F662321F080E3860F0E94CA02FA
:10018000CE016AE070E00E943808862F9AE0199F3D
:1001900080191124882319F0805D0E94CA028EE222
:1001A0000E94CA02CE016AE070E00E943808805DB9
:1001B0000E94CA0283E4DF91CF911F910C94CA027E
:1001C0001F93CF93DF93813031F4CB01DF91CF9137
:1001D0001F910C94AB00811132C0EB0167E08AE003
:1001E00091E00E943F04CE0164E670E00E9438086E
:1001F000162F662321F080E3860F0E94CA02CE01EB
:100200006AE070E00E943808862F9AE0199F8019F2
:100210001124882319F0805D0E94CA028EE20E9498
:10022000CA02CE016AE070E00E943808805D0E9438
:10023000CA0285E2DF91CF911F910C94CA02DF912F
:10024000CF911F91089587B3876087BBC09A80E5DF
:100250008DB91EB80895C09886E08FB9779BFECF00
:10026000C09A089595E0C0989FB9779BFECF1FB8BC
:10027000779BFECF8FB11FB8779BFECFC09A80FDD2
:10028000F2CF08951F93CF93DF93D82F192FC62F46
:100290000E942B01C09882E08FB9779BFECF1FB9D7
:1002A000779BFECFDFB9779BFECFCFB9779BFECF91
:1002B000C09ADF91CF911F910C943201C09823E036
:1002C0002FB9779BFECF9FB9779BFECF8FB9779BD6
:1002D000FECF1FB8779BFECF8FB1C09A0895FF92D3
:1002E0000F931F93CF93DF93EC01F62E072F142F5C
:1002F0000E942B01C09882E08FB9779BFECFDFB9B7
:10030000779BFECFCFB9779BFECFEF2DF02FCE1B83
:10031000DF0B112349F081918FB9779BFECFCE017E
:100320008E0F9F1F811108C0C09ADF91CF911F913E
:100330000F91FF900C9432011150EBCFC09823E045
:100340002FB9779BFECF9FB9779BFECF8FB9779B55
:10035000FECFFB01861B970B442351F01FB8779B00
:10036000FECF2FB121939C012E0F3F1F211102C000
:10037000C09A08954150F0CFE5E6F0E080818D7F8E
:10038000808380818E7F808380818B7F8083E4E681
:10039000F0E08081826080838081816080838081C1
:1003A0008460808384B38F7084BB85B3806F85BB8A
:1003B00008958FE39FE10197F1F700C000000895D1
:1003C000EFE3FFE13197F1F700C00000E5E6F0E070
:1003D00090819D7F908390819E7F90839081946097
:1003E000908394B3906F94BB95B39F70282F207F18
:1003F000922B95BB000000000000000000000000F0
:1004000000000000000000000000000000000000EC
:1004100000000000000000000000000000000000DC
:100420000000000090819B7F90830000000000008E
:1004300000000000000000000000000000000000BC
:1004400000000000000000000000000000000000AC
:100450000000000000000000000090819460908384
:1004600025B32F7030E1839FC0011124822B85BBFF
:10047000000000000000000000000000000000007C
:10048000000000000000000000000000000000006C
:10049000000000000000000000000000000000005C
:1004A00080818B7F808384B38F7084BB85B3806FA2
:1004B00085BB08958FE39FE10197F1F700C000002D
:1004C00084B38F7084BB85B3806F85BBE5E6F0E0B5
:1004D00080818D7F80838081816080838081846042
:1004E0008083000000000000000000000000000009
:1004F00000000000000000000000000000000000FC
:1005000000000000000000000000000000000000EB
:10051000000093B380818B7F808300000000000087
:1005200000000000000000000000000000000000CB
:1005300000000000000000000000000000000000BB
:1005400000000000000000000000808184608083C3
:10055000000000000000000000000000000000009B
:10056000000000000000000000000000000000008B
:10057000000000000000000000000000000000007B
:1005800023B322952F70892F807F90819B7F90834A
:10059000822B0895EFE3FFE13197F1F700C00000EF
:1005A000E5E6F0E090819260908390819E7F908359
:1005B00090819460908394B3906F94BB95B39F7037
:1005C000282F207F922B95BB000000000000000028
:1005D000000000000000000000000000000000001B
:1005E000000000000000000000000000000000000B
:1005F000000000000000000090819B7F90830000BD
:1006000000000000000000000000000000000000EA
:1006100000000000000000000000000000000000DA
:1006200000000000000000000000000000009081B9
:100630009460908325B32F7030E1839FC001112413
:10064000822B85BB000000000000000000000000BD
:10065000000000000000000000000000000000009A
:10066000000000000000000000000000000000008A
:100670000000000080818B7F808384B38F7084BBF7
:1006800085B3806F85BB08958FE39FE10197F1F7F4
:1006900000C0000084B38F7084BB85B3806F85BBBE
:1006A000E5E6F0E0808182608083808181608083E4
:1006B0008081846080830000000000000000000052
:1006C000000000000000000000000000000000002A
:1006D000000000000000000000000000000000001A
:1006E00000000000000093B380818B7F80830000B6
:1006F00000000000000000000000000000000000FA
:1007000000000000000000000000000000000000E9
:1007100000000000000000000000000000008081D8
:1007200084608083000000000000000000000000E2
:1007300000000000000000000000000000000000B9
:1007400000000000000000000000000000000000A9
:100750000000000023B322952F70892F807F9081A5
:100760009B7F9083822B089582E00C94E00181E0CE
:100770000C94E001623031F0633031F0613029F4E3
:10078000805C03C08C5E01C08C5A80680C94E001D0
:10079000CF92DF92EF92FF921F93CF93DF93C82EF9
:1007A000D62F0E945A02182F1F77DD0FDD0FDD0FA5
:1007B000CC0CCC0CCC0CD12CE12CF12C8EEBC80E3B
:1007C000D11C81E0E81EF11CC0E08D2F8C0F8064ED
:1007D0000E94E001EBBEF60187910E94CA02CF5F42
:1007E0008FEFC81AD80AE80AF80AC83071F7812FC3
:1007F0008068DF91CF911F91FF90EF90DF90CF90B5
:100800000C94E0010E94BC0188E20E94E00181E0BA
:100810000E94E0012FEF8DEE92E021508040904049
:10082000E1F700C0000086E00E94E0018CE00E9439
:10083000E00182E00E94E00180E80E94E00160E0C7
:1008400080E00E94C80361E081E00E94C80362E08A
:1008500082E00E94C80363E083E00E94C80364E072
:1008600084E00E94C80365E085E00E94C80366E05A
:1008700086E00E94C80367E087E00C94C8030F93EA
:100880001F93CF93DF93009759F0EC018C01060F73
:10089000111DC017D10721F089910E94CA02F9CF1A
:1008A000DF91CF911F910F9108951F93CF93DF9305
:1008B000009761F0EC0110E0FE01E10FF11D808175
:1008C000882321F00E94CA021F5FF6CFDF91CF91EB
:1008D0001F9108958F929F92AF92BF92CF92DF9215
:1008E000EF92FF921F93CF93DF93142F46E0489F20
:1008F0009001499F300D1124129FC001139F900D4C
:1009000011240E9438086B01E12CF12CC701B601BB
:1009100026E030E040E050E00E944C08D62F812CC9
:10092000912C5401C0E0C117E9F0D501C40105962E
:10093000A11DB11DC816D906EA06FB0638F4C81475
:10094000D904EA04FB0420F480E003C085E001C080
:100950008D2F0E94CA02CF5F86E0880E911CA11CD9
:10096000B11CE1CFDF91CF911F91FF90EF90DF900D
:10097000CF90BF90AF909F908F900895382FFC013B
:1009800080E051E39E2F931B961770F49191892775
:1009900098E0282F220F87FF03C0822F852701C0F0
:1009A000822F9150B1F7EECF841302C080E00895FA
:1009B00084E00895EF92FF921F93CF93DF931F92ED
:1009C000CDB7DEB77C010E94DE06182F80E80E94BA
:1009D0000907182B87EE0E94F406182B0E94DE06EA
:1009E000182B81E80E940907182B60E0C7010E94BC
:1009F0002207182B61E0CE0101960E942207182BD6
:100A0000498161E0C7010E94BE04182B0E94F006D4
:100A1000812F0F90DF91CF911F91FF90EF9008955C
:100A20000F931F93CF938C010E94DE06C82F80E89E
:100A30000E940907C82B86EE0E94F406C82BF80115
:100A400080810E94F406C82B0E94F0068C2FCF9163
:100A50001F910F910895CF92DF92EF92FF921F9313
:100A6000CF93DF9300D01F92CDB7DEB76C017B012F
:100A70000E94DE06182F80E80E940907182BC11477
:100A8000D10429F0CA94CD2831F483EE01C085EE5B
:100A90000E94F406182B0E94DE06182B81E80E94A3
:100AA0000907182B60E0CE0101960E942207182B3F
:100AB00060E0CE0102960E942207182B8981F7017F
:100AC00081838A81808361E0CE0103960E942207A0
:100AD000182B4B8162E0CE0101960E94BE04182BB8
:100AE0000E94F006812F0F900F900F90DF91CF9111
:100AF0001F91FF90EF90DF90CF900895EF92FF92BB
:100B00000F931F93CF93DF9300D01F92CDB7DEB723
:100B10008C017B010E94DE0680E80E940907011516
:100B2000110521F00130110531F003C085EF0E945D
:100B3000F40600E007C083EFFACF81E80E940907BE
:100B40008F3F69F00E94DE06182F8FE39CE9019722
:100B5000F1F700C000000F5F053179F702C00431E2
:100B600009F4126060E0CE0101960E942207182B62
:100B700060E0CE0102960E942207182B8981F701BE
:100B800081838A81808361E0CE0103960E942207DF
:100B9000182B4B8162E0CE0101960E94BE04182BF7
:100BA0000E94F006812F0F900F900F90DF91CF9150
:100BB0001F910F91FF90EF900895CF930E94DE0652
:100BC000C82F80E80E940907C82B8EEF0E94F40608
:100BD000C82B0E94F0068FE59AEE0197F1F700C04E
:100BE00000008C2FCF9108958C7FBC0180E090E0B5
:100BF0000E940A0920E030E04AEF5AE30E94980977
:100C000020E030E040EC50E40E946E0808958C7FB4
:100C1000BC0180E090E00E940A0922E538EB4FE237
:100C20005BE30E94980926E636E64BE352E40E9415
:100C30006E080895EF92FF921F93CF93DF931F9258
:100C4000CDB7DEB77C010E94DE0680E80E9409076E
:100C50008AEF0E94F4068FE00E94F4060E94DE06EE
:100C600081E80E94090760E0C70105960E942207FB
:100C700060E0CE0101960E94220760E0C701049661
:100C80000E94220760E0CE0101960E94220760E0E8
:100C9000C70103960E94220760E0CE0101960E94E0
:100CA000220760E0C70102960E94220761E0CE01A0
:100CB00001960E9422070E94F0060E94DE0680E84C
:100CC0000E9409078CEF0E94F40689EC0E94F4064A
:100CD0000E94DE06182F81E80E940907182B60E0A9
:100CE000C70101960E942207182B60E0C7010E94ED
:100CF0002207182B60E0CE0101960E942207182BD4
:100D000060E0C70107960E942207182B60E0C70128
:100D100006960E942207182B61E0CE0101960E94E0
:100D20002207182B0E94F006812F0F90DF91CF91A0
:100D30001F91FF90EF900895FF920F931F93CF9311
:100D4000DF93CDB7DEB729970FB6F894DEBF0FBE9D
:100D5000CDBF0E94DD05F82ECE0101960E941A0635
:100D6000082FCE0109960E94DA04182F99859E77E4
:100D700090689987CE0109960E941005998596FD85
:100D800004C00F29102B812B01C080E129960FB6DA
:100D9000F894DEBF0FBECDBFDF91CF911F910F91B1
:100DA000FF90089581E48093700084E08093740044
:100DB00008958091740087FFFCCF089584EA8093A2
:100DC00074000E94D90680917100883039F08091BA
:100DD0007100803119F08091710008958FEF0895AE
:100DE00084E9809374000895CF93C82F0E94D90698
:100DF000C093730084E8809374000E94D9068091A8
:100E00007100883219F08091710001C08FEFCF918D
:100E10000895CF93C82F0E94D906C093730084E829
:100E2000809374000E94D90680917100883139F056
:100E300080917100803419F08091710001C08FEFB2
:100E4000CF9108950F931F93CF938C01C62F0E94CB
:100E5000D906CC2311F084E801C084EC809374009F
:100E60000E94D90680917300F801808380917100FF
:100E7000883511F4CC2339F080917100803519F058
:100E80008091710001C08FEFCF911F910F91089554
:100E90001BB888E18AB986E1809395001092900092
:100EA00087E089B908955D9BFECF8CB980E090E022
:100EB00008955F9BFECF8CB190E008950F931F9330
:100EC000CF93DF93EC018C010A501E4F8991882348
:100ED00039F060E070E00E945307C017D107B1F706
:100EE000DF91CF911F910F910895EF92FF920F9391
:100EF0001F93CF93DF9300D000D0CDB7DEB720E3B0
:100F000030E03A8329831C821B829E012F5F3F4F72
:100F100079018823A9F0F90120E030E0AAE06A2FE6
:100F20000E942C08905D9193A9014F5F5F4F882329
:100F300011F09A01F4CFF701E40FF51F108202C0FF
:100F400020E030E02F5F3F4F8701020F131FE016B4
:100F5000F10641F060E070E0F80182918F010E949B
:100F60005307F5CF0F900F900F900F90DF91CF9117
:100F70001F910F91FF90EF900895CF93DF9300D0D2
:100F800000D0CDB7DEB70E94D2060E9402040E94B4
:100F90009C06BE016D5F7F4F80E090E00E942B05B4
:100FA000182FBE016F5F7F4F81E090E00E942B05FC
:100FB000812B082B89819A810E94070620E030E06E
:100FC00040E251E40E9498090E94DB0870932D01D1
:100FD00060932C018B819C810E94F40520E030E01D
:100FE00040E251E40E9498090E94DB0870932F01AF
:100FF00060932E0160E080E00F3FA1F40E94BA03ED
:1010000080912C0190912D010E94AB0061E080E065
:101010000E94BA0360912E0170912F0180E00E941E
:10102000E00010C00E94BA036CE082E191E00E94EF
:101030003F0461E080E00E94BA036CE08FE191E040
:101040000E943F042FEF86E791E0215080409040BE
:10105000E1F700C000009DCF991B79E004C0991F03
:10106000961708F0961B881F7A95C9F78095089502
:10107000AA1BBB1B51E107C0AA1FBB1FA617B707BE
:1010800010F0A61BB70B881F991F5A95A9F78095DA
:101090009095BC01CD010895A1E21A2EAA1BBB1B9D
:1010A000FD010DC0AA1FBB1FEE1FFF1FA217B30734
:1010B000E407F50720F0A21BB30BE40BF50B661F4A
:1010C000771F881F991F1A9469F76095709580950E
:1010D00090959B01AC01BD01CF0108955058BB27ED
:1010E000AA270E9486080C945E090E94500938F0D5
:1010F0000E94570920F039F49F3F19F426F40C940C
:101100004D090EF4E095E7FB0C944709E92F0E9486
:101110006F0958F3BA17620773078407950720F021
:1011200079F4A6F50C9491090EF4E0950B2EBA2FE4
:10113000A02D0B01B90190010C01CA01A0011124DD
:10114000FF27591B99F0593F50F4503E68F11A1689
:10115000F040A22F232F342F4427585FF3CF46951A
:1011600037952795A795F0405395C9F77EF41F163C
:10117000BA0B620B730B840BBAF09150A1F0FF0F06
:10118000BB1F661F771F881FC2F70EC0BA0F621FF2
:10119000731F841F48F4879577956795B795F795E2
:1011A0009E3F08F0B0CF9395880F08F09927EE0F77
:1011B0009795879508950E94770988F09F5798F032
:1011C000B92F9927B751B0F0E1F0660F771F881F4C
:1011D000991F1AF0BA95C9F714C0B13091F00E9466
:1011E0009109B1E008950C949109672F782F882711
:1011F000B85F39F0B93FCCF3869577956795B3958D
:10120000D9F73EF490958095709561957F4F8F4FFB
:101210009F4F0895E89409C097FB3EF49095809500
:10122000709561957F4F8F4F9F4F9923A9F0F92FAC
:1012300096E9BB279395F695879577956795B7952A
:10124000F111F8CFFAF4BB0F11F460FF1BC06F5F10
:101250007F4F8F4F9F4F16C0882311F096E911C022
:10126000772321F09EE8872F762F05C0662371F043
:1012700096E8862F70E060E02AF09A95660F771F57
:10128000881FDAF7880F9695879597F9089597F94B
:101290009F6780E870E060E008959FEF80EC08951C
:1012A00000240A9416161706180609060895002445
:1012B0000A9412161306140605060895092E0394BF
:1012C000000C11F4882352F0BB0F40F4BF2B11F433
:1012D00060FF04C06F5F7F4F8F4F9F4F089557FD92
:1012E0009058440F551F59F05F3F71F04795880F94
:1012F00097FB991F61F09F3F79F08795089512162B
:1013000013061406551FF2CF4695F1DF08C01616D6
:1013100017061806991FF1CF869571056105089487
:101320000895E894BB2766277727CB0197F908959E
:101330000E94AB090C945E090E94500938F00E948B
:10134000570920F0952311F00C9447090C944D098E
:1013500011240C9492090E946F0970F3959FC1F3B8
:10136000950F50E0551F629FF001729FBB27F00D53
:10137000B11D639FAA27F00DB11DAA1F649F6627A8
:10138000B00DA11D661F829F2227B00DA11D621FF7
:10139000739FB00DA11D621F839FA00D611D221FB1
:1013A000749F3327A00D611D231F849F600D211D95
:1013B000822F762F6A2F11249F5750409AF0F1F018
:1013C00088234AF0EE0FFF1FBB1F661F771F881F81
:1013D00091505040A9F79E3F510580F00C94470969
:1013E0000C9492095F3FE4F3983ED4F38695779589
:1013F0006795B795F795E7959F5FC1F7FE2B880F27
:0E140000911D9695879597F90895F894FFCF62
:10140E0031012054656D703A20002048756D693A9F
:10141E0020002054656D703A202D2D2E2D43002076
:0C142E0048756D693A202D2D2E2D2500EB
:00000001FF
