:100000000C9446000C9465000C9465000C946500FB
:100010000C9465000C9467000C948D000C946500A2
:100020000C9465000C9465000C9465000C946500BC
:100030000C9465000C9465000C9465000C946500AC
:100040000C9465000C9465000C9465000C9465009C
:100050000C9465000C9465000C9465000C9465008C
:100060000C9465000C9465000C9465000C9465007C
:100070000C9465000C9465000C9465000C9465006C
:100080000C9465000C9465000C94650011241FBE4F
:10009000CFEFD0E1DEBFCDBF11E0A0E0B1E0E0E105
:1000A000F2E000E00BBF02C007900D92A231B10751
:1000B000D9F721E0A2E1B1E001C01D92A331B2075E
:1000C000E1F70E94A7000C9406010C9400001F9217
:1000D0000F920FB60F9211245F936F937F938F93BC
:1000E0009F93AF93BF93F89480911201082E000C58
:1000F000990B01966AE070E00E94DE008093120185
:100100007894BF91AF919F918F917F916F915F9103
:100110000F900FBE0F901F9018951F920F920FB661
:100120000F9211248F93F894809112018150809343
:1001300012018091120187FF03C089E080931201B0
:1001400078948F910F900FBE0F901F901895CF93BA
:10015000DF93CDB7DEB761970FB6F894DEBF0FBE61
:10016000CDBF81E1E0E0F1E0DE01119601900D925A
:100170008A95E1F78FEF8ABB83E08ABF89B78061F8
:1001800089BF8AB78C608ABF89B7806289BF78943B
:1001900080911201E1E0F0E0EC0FFD1FE80FF11D8E
:1001A00087FDFA9580818BBB2FEF81EE94E0215083
:1001B00080409040E1F700C00000EACF97FB072E97
:1001C00016F4009407D077FD09D00E94F20007FCD6
:1001D00005D03EF4909581959F4F08957095619557
:1001E0007F4F0895AA1BBB1B51E107C0AA1FBB1F6D
:1001F000A617B70710F0A61BB70B881F991F5A95B3
:10020000A9F780959095BC01CD010895F894FFCF92
:100210003F065B4F666D7C077F67777C395E79713F
:0202200080005C
:00000001FF
