:100000000C9446000C9458000C9458000C94580022
:100010000C9458000C945A000C9458000C945800FE
:100020000C9458000C9458000C9458000C945800F0
:100030000C9458000C9458000C9458000C945800E0
:100040000C9458000C9458000C9458000C945800D0
:100050000C9458000C9458000C9458000C945800C0
:100060000C9458000C9458000C9458000C945800B0
:100070000C9458000C9458000C9458000C945800A0
:100080000C9458000C9458000C94580011241FBE76
:10009000CFEFD0E1DEBFCDBF21E0A0E0B1E001C0F5
:1000A0001D92A130B207E1F70E9472000C949000FB
:1000B0000C9400001F920F920FB60F9211248F9391
:1000C000F89480910001811104C081E080930001C7
:1000D00002C01092000178948F910F900FBE0F9084
:1000E0001F9018958FE084BB12B883E08ABF80E12F
:1000F00089BF88BF789481E085BB90910001911100
:1001000005C0883011F0880F01C081E02FEF31EE7B
:1001100094E0215030409040E1F700C00000ECCF67
:04012000F894FFCF81
:00000001FF
