:100000000C9446000C945D000C945D000C945D0013
:100010000C945D000C945D000C945D000C945D00EC
:100020000C945D000C945D000C945D000C945D00DC
:100030000C945D000C945D000C945D000C945D00CC
:100040000C945D000C945D000C945D000C945D00BC
:100050000C945D000C945D000C945D000C945D00AC
:100060000C945D000C945D000C945D000C945D009C
:100070000C945D000C945D000C945D000C945D008C
:100080000C945D000C945D000C945D0011241FBE67
:10009000CFEFD0E1DEBFCDBF11E0A0E0B1E0E6ECF4
:1000A000F4E000E00BBF02C007900D92A034B1074E
:1000B000D9F70E94B1010C9461020C94000025B3A1
:1000C0002F7030E1839FC0011124822B85BBE5E6B0
:1000D000F0E080818460808385E08A95F1F70000FC
:1000E00080818B7F808387EC90E00197F1F700C0DF
:1000F00000000895CF93C82F80916500662311F00A
:10010000816001C08E7F80936500809165008D7F46
:10011000809365008C2F82958F700E945F008C2FDA
:100120008F70CF910C945F00CF93C82F60E00E9436
:100130007A00C150C23028F48FE39FE10197F1F7B4
:1001400004C087EC90E00197F1F700C00000CF9168
:100150000895E4E6F0E0808187608083E5E6F0E0E2
:100160008081887F808384B3806F84BB2FEF80E79A
:1001700092E0215080409040E1F700C0000083E011
:100180000E945F008FE19EE40197F1F700C000003C
:1001900083E00E945F0087E592E00197F1F700C0DD
:1001A000000083E00E945F0087E592E00197F1F78D
:1001B00000C0000082E00E945F0087E592E00197A6
:1001C000F1F700C0000088E20E9494008CE00E94D9
:1001D000940081E00E94940086E00C94940081E0F9
:1001E0000C949400882311F080E401C080E0860F15
:1001F00080680C94940061E00E947A0087EC90E0A3
:100200000197F1F700C000000895CF93DF93EC0150
:100210008991882351F061E00E947A0087EC90E098
:100220000197F1F700C00000F3CFDF91CF9108955F
:100230000F931F93CF93DF938B01877028E0829FEA
:10024000C001112480640E949400E801085F1F4FE0
:1002500061E089910E947A0087EC90E00197F1F7C4
:1002600000C00000C017D10799F780E8DF91CF9157
:100270001F910F910C9494001BB888E18AB986E114
:10028000809395001092900087E089B908955D9B56
:10029000FECF8CB980E090E008955F9BFECF8CB1DB
:1002A00090E008950F931F93CF93DF93EC018C019F
:1002B0000A501E4F8991882339F060E070E00E9457
:1002C0004701C017D107B1F7DF91CF911F910F916F
:1002D0000895EF92FF920F931F93CF93DF9300D077
:1002E00000D0CDB7DEB720E330E03A8329831C820B
:1002F0001B829E012F5F3F4F79018823A9F0F901EE
:1003000020E030E0AAE06A2F0E945502905D9193B0
:10031000A9014F5F5F4F882311F09A01F4CFF701D5
:10032000E40FF51F108202C020E030E02F5F3F4F46
:100330008701020F131FE016F10641F060E070E044
:10034000F80182918F010E944701F5CF0F900F9025
:100350000F900F90DF91CF911F910F91FF90EF9031
:1003600008950E94A90068E371E080E00E941801EE
:1003700060E371E081E00E94180168E271E082E0D0
:100380000E94180160E271E083E00E94180168E1B8
:1003900071E084E00E94180160E171E085E00E9454
:1003A000180168E071E086E00E94180160E071E0E9
:1003B00087E00E94180100E011E0C8E060E080E002
:1003C0000E94F20080E00E94FB0080E20E94FB009D
:1003D00080E20E94FB0081E00E94FB0080E20E941C
:1003E000FB0080E20E94FB0086E00E94FB0080E2AE
:1003F0000E94FB00002319F097E0F92E02C082E072
:10040000F82ED8E0CD1302C08F2D01C080E20E94EB
:10041000FB00DF5FD031B1F760E081E00E94F200C5
:1004200083E00E94FB0080E20E94FB0084E00E94C7
:10043000FB0080E20E94FB0085E00E94FB0080E25E
:100440000E94FB0086E00E94FB0080E20E94FB000D
:1004500086E00E94FB0080E20E94FB0086E00E9492
:10046000FB0080E20E94FB0080E20E94FB0080E231
:100470000E94FB0080E20E94FB0080E20E94FB00E1
:100480002FEF86E191E1215080409040E1F700C0DC
:10049000000081E00827C10FCF3010F01FEF8ECF92
:1004A000C93008F08BCF11E089CF991B79E004C0E7
:1004B000991F961708F0961B881F7A95C9F78095A3
:0604C0000895F894FFCF3F
:1004C600000A1F000000000000000816010E0000D0
:1004D600040E1F0E1F040404040E1F15151B1B1FFC
:1004E600040E0E1F1F1F1F1F0A1F00000000000022
:1004F600000A1F1F0E040000150E1F0E1500000037
:00000001FF
