:100000000C948A000C94A1000C94A1000C94A10003
:100010000C94A1000C94A1000C94A1000C94A100DC
:100020000C94A1000C94A1000C94A1000C94A100CC
:100030000C94A1000C94A1000C94A1000C94A100BC
:100040000C94A1000C94A1000C94A1000C94A100AC
:100050000C94A1000C94A1000C94A1000C94A1009C
:100060000C94A1000C94A1000C94A1000C94A1008C
:100070000C94A1000C94A1000C94A1000C94A1007C
:100080000C94A1000C94A1000C94A100001F00008E
:1000900000001F00001F101010101F00001F181874
:1000A00018181F00001F1C1C1C1C1F00001F1E1EF8
:1000B0001E1E1F00001F1F1F1F1F1F0003070F1FF3
:1000C0000F070300001F1F1F1F1F1F001B1B1B1BF1
:1000D0001B1B1B00181C1E1F1E1C18000004040EF6
:1000E0000E1F1F00001F1F0E0E0404000000000062
:1000F00000000000000E1915130E0000000E15156B
:10010000150E0000000E1315190E0000000E111F31
:10011000110E000011241FBECFEFD0E1DEBFCDBF16
:1001200011E0A0E0B1E0EEEFF8E000E00BBF02C0AC
:1001300007900D92A231B107D9F70E941A040C94CE
:100140007D040C940000E5E6F0E080818D7F8083E3
:1001500080818E7F808380818B7F8083E4E6F0E0E6
:1001600080818260808380818160808380818460DF
:10017000808384B38F7084BB85B3806F85BB089503
:100180008FE39FE10197F1F700C000000895EFE3CE
:10019000FFE13197F1F700C00000E5E6F0E0908163
:1001A0009D7F908390819E7F9083908194609083C7
:1001B00094B3906F94BB95B39F70282F207F922BA0
:1001C00095BB0000000000000000000000000000DF
:1001D000000000000000000000000000000000001F
:1001E000000000000000000000000000000000000F
:1001F000000090819B7F90830000000000000000C1
:1002000000000000000000000000000000000000EE
:1002100000000000000000000000000000000000DE
:10022000000000000000000090819460908325B3DE
:100230002F7030E1839FC0011124822B85BB000009
:1002400000000000000000000000000000000000AE
:10025000000000000000000000000000000000009E
:10026000000000000000000000000000000080818D
:100270008B7F808384B38F7084BB85B3806F85BB95
:1002800008958FE39FE10197F1F700C0000084B368
:100290008F7084BB85B3806F85BBE5E6F0E080811D
:1002A0008D7F808380818160808380818460808372
:1002B000000000000000000000000000000000003E
:1002C000000000000000000000000000000000002E
:1002D000000000000000000000000000000000001E
:1002E00093B380818B7F80830000000000000000BA
:1002F00000000000000000000000000000000000FE
:1003000000000000000000000000000000000000ED
:1003100000000000000000008081846080830000F5
:1003200000000000000000000000000000000000CD
:1003300000000000000000000000000000000000BD
:10034000000000000000000000000000000023B3D7
:1003500022952F70892F807F90819B7F9083822BA5
:100360000895EFE3FFE13197F1F700C00000E5E603
:10037000F0E090819260908390819E7F9083908145
:100380009460908394B3906F94BB95B39F70282F23
:10039000207F922B95BB00000000000000000000B1
:1003A000000000000000000000000000000000004D
:1003B000000000000000000000000000000000003D
:1003C00000000000000090819B7F908300000000EF
:1003D000000000000000000000000000000000001D
:1003E000000000000000000000000000000000000D
:1003F00000000000000000000000000090819460F8
:10040000908325B32F7030E1839FC0011124822B8C
:1004100085BB00000000000000000000000000009C
:1004200000000000000000000000000000000000CC
:1004300000000000000000000000000000000000BC
:10044000000080818B7F808384B38F7084BB85B3F1
:10045000806F85BB08958FE39FE10197F1F700C09E
:10046000000084B38F7084BB85B3806F85BBE5E6E5
:10047000F0E08081826080838081816080838081E0
:100480008460808300000000000000000000000085
:10049000000000000000000000000000000000005C
:1004A000000000000000000000000000000000004C
:1004B0000000000093B380818B7F808300000000E8
:1004C000000000000000000000000000000000002C
:1004D000000000000000000000000000000000001C
:1004E0000000000000000000000000008081846027
:1004F00080830000000000000000000000000000F9
:1005000000000000000000000000000000000000EB
:1005100000000000000000000000000000000000DB
:10052000000023B322952F70892F807F90819B7FBD
:100530009083822B089582E00C94C70081E00C9494
:10054000C700623031F0633031F0613029F4805CF3
:1005500003C08C5E01C08C5A80680C94C700CF9297
:10056000DF92EF92FF921F93CF93DF93C82ED62F87
:100570000E944101182F1F77DD0FDD0FDD0FCC0C1E
:10058000CC0CCC0CD12CE12CF12C8EEBC80ED11C58
:1005900081E0E81EF11CC0E08D2F8C0F80640E946A
:1005A000C700EBBEF60187910E94B101CF5F8FEFCC
:1005B000C81AD80AE80AF80AC83071F7812F80688B
:1005C000DF91CF911F91FF90EF90DF90CF900C942F
:1005D000C7000E94A30088E20E94C70081E00E9439
:1005E000C7002FEF8DEE92E0215080409040E1F760
:1005F00000C0000086E00E94C7008CE00E94C70097
:1006000082E00E94C70080E80E94C70060E080E0AE
:100610000E94AF0261E081E00E94AF0262E082E0EE
:100620000E94AF0263E083E00E94AF0264E084E0D6
:100630000E94AF0265E085E00E94AF0266E086E0BE
:100640000E94AF0267E087E00C94AF020F931F9304
:10065000CF93DF93009759F0EC018C01060F111D29
:10066000C017D10721F089910E94B101F9CFDF9124
:10067000CF911F910F9108951F93CF93DF93009710
:1006800061F0EC0110E0FE01E10FF11D8081882393
:1006900021F00E94B1011F5FF6CFDF91CF911F9132
:1006A00008958F929F92AF92BF92CF92DF92EF9276
:1006B000FF921F93CF93DF93142F46E0489F900142
:1006C000499F300D1124129FC001139F900D1124DA
:1006D0000E9447046B01E12CF12CC701B60126E012
:1006E00030E040E050E00E945B04D62F812C912C3A
:1006F0005401C0E0C117E9F0D501C4010596A11D60
:10070000B11DC816D906EA06FB0638F4C814D90488
:10071000EA04FB0420F480E003C085E001C08D2FD3
:100720000E94B101CF5F86E0880E911CA11CB11C14
:10073000E1CFDF91CF911F91FF90EF90DF90CF90AD
:10074000BF90AF909F908F9008951BB888E18AB9B1
:1007500086E1809395001092900087E089B9089512
:100760005D9BFECF8CB980E090E008955F9BFECF4B
:100770008CB190E008950F931F93CF93DF93EC011A
:100780008C010A501E4F8991882339F060E070E097
:100790000E94B003C017D107B1F7DF91CF911F912D
:1007A0000F910895EF92FF920F931F93CF93DF93D2
:1007B00000D000D0CDB7DEB720E330E03A83298304
:1007C0001C821B829E012F5F3F4F79018823A9F075
:1007D000F90120E030E0AAE06A2F0E943B04905D1E
:1007E0009193A9014F5F5F4F882311F09A01F4CFD5
:1007F000F701E40FF51F108202C020E030E02F5F08
:100800003F4F8701020F131FE016F10641F060E031
:1008100070E0F80182918F010E94B003F5CF0F9034
:100820000F900F900F90DF91CF911F910F91FF903C
:10083000EF9008950E94E9020E949E0260E080E02D
:100840000E94A10288E40E94B10185E40E94B101E6
:100850008CE40E94B1018CE40E94B1018FE40E94FB
:10086000B10161E082E00E94A1026CE080E091E0D1
:100870000E942603FFCF991B79E004C0991F9617A9
:1008800008F0961B881F7A95C9F780950895AA1BD2
:10089000BB1B51E107C0AA1FBB1FA617B70710F06B
:1008A000A61BB70B881F991F5A95A9F7809590959D
:1008B000BC01CD010895A1E21A2EAA1BBB1BFD01AC
:1008C0000DC0AA1FBB1FEE1FFF1FA217B307E4072F
:1008D000F50720F0A21BB30BE40BF50B661F771F87
:1008E000881F991F1A9469F7609570958095909567
:0E08F0009B01AC01BD01CF010895F894FFCF2C
:1008FE004D435520576F726C6420212121212121F7
:02090E000000E7
:00000001FF
