:100000000C9446000C9450000C9450000C9450003A
:100010000C9450000C9450000C9450000C94500020
:100020000C9450000C9450000C9450000C94500010
:100030000C9450000C9450000C9450000C94500000
:100040000C9450000C9450000C9450000C945000F0
:100050000C9450000C9450000C9450000C945000E0
:100060000C9450000C9450000C9450000C945000D0
:100070000C9450000C9450000C9450000C945000C0
:100080000C9450000C9450000C94500011241FBE8E
:10009000CFEFD0E1DEBFCDBF0E9452000C947300C1
:1000A0000C94000083E08093140084BB9FE085B330
:1000B0008F6085BB85B38F6085BBAA9A95BB2FEFF8
:1000C00039E688E1215030408040E1F700C000006F
:1000D00015BA2FEF39E688E1215030408040E1F732
:0A00E00000C00000E4CFF894FFCF49
:00000001FF
