:100000000C9446000C9450000C9450000C9450003A
:100010000C9450000C9450000C9450000C94500020
:100020000C9450000C9450000C9450000C94500010
:100030000C9450000C9450000C9450000C94500000
:100040000C9450000C9450000C9450000C945000F0
:100050000C9450000C9450000C9450000C945000E0
:100060000C9450000C9450000C9450000C945000D0
:100070000C9450000C9450000C9450000C945000C0
:100080000C9450000C9450000C94500011241FBE8E
:10009000CFEFD0E1DEBFCDBF0E94E1000C94220182
:1000A0000C94000081B3806381BBBD9A81E88FBD51
:1000B0008AE08EBD089590E09BBD8ABD0895949A14
:1000C0009598C59A08959498959AC59A0895949884
:1000D00095981BBC1ABC08951BB888E18AB986E1C3
:1000E000809395001092900087E089B908955D9BF8
:1000F000FECF8CB980E090E008955F9BFECF8CB17D
:1001000090E008950F931F93CF93DF93EC018C0140
:100110000A501E4F8991882339F060E070E00E94F8
:100120007700C017D107B1F7DF91CF911F910F91E1
:100130000895EF92FF920F931F93CF93DF9300D018
:1001400000D0CDB7DEB720E330E03A8329831C82AC
:100150001B829E012F5F3F4F79018823A9F0F9018F
:1001600020E030E0AAE06A2F0E941601905D919392
:10017000A9014F5F5F4F882311F09A01F4CFF70177
:10018000E40FF51F108202C020E030E02F5F3F4FE8
:100190008701020F131FE016F10641F060E070E0E6
:1001A000F80182918F010E947700F5CF0F900F9098
:1001B0000F900F90DF91CF911F910F91FF90EF90D3
:1001C00008950E945200C6E9D0E00E945F00DBBDA6
:1001D000CABD2FEF87EA91E6215080409040E1F7B9
:1001E00000C000000E9467002FEF83ED90E32150D4
:1001F00080409040E1F700C000000E946300DBBD3A
:10020000CABD2FEF87EA91E6215080409040E1F788
:1002100000C000000E9467002FEF83ED90E32150A3
:1002200080409040E1F700C00000CFCF991B79E0FB
:1002300004C0991F961708F0961B881F7A95C9F776
:0802400080950895F894FFCFAA
:00000001FF
