:100000000C948A000C9494000C9494000C9494002A
:100010000C9494000C9494000C9494000C94940010
:100020000C9494000C9494000C9494000C94940000
:100030000C9494000C9494000C9494000C949400F0
:100040000C9494000C9494000C9494000C949400E0
:100050000C9494000C9494000C9494000C949400D0
:100060000C9494000C9494000C9494000C949400C0
:100070000C9494000C9494000C9494000C949400B0
:100080000C9494000C9494000C949400001F0000B5
:1000900000001F00001F101010101F00001F181874
:1000A00018181F00001F1C1C1C1C1F00001F1E1EF8
:1000B0001E1E1F00001F1F1F1F1F1F0003070F1FF3
:1000C0000F070300001F1F1F1F1F1F001B1B1B1BF1
:1000D0001B1B1B00181C1E1F1E1C18000004040EF6
:1000E0000E1F1F00001F1F0E0E0404000000000062
:1000F00000000000000E1915130E0000000E15156B
:10010000150E0000000E1315190E0000000E111F31
:10011000110E000011241FBECFEFD0E1DEBFCDBF16
:100120000E940D040C9464040C940000E5E6F0E0D9
:1001300080818D7F808380818E7F808380818B7F93
:100140008083E4E6F0E0808182608083808181604A
:10015000808380818460808384B38F7084BB85B307
:10016000806F85BB08958FE39FE10197F1F700C091
:1001700000000895EFE3FFE13197F1F700C00000C0
:10018000E5E6F0E090819D7F908390819E7F908353
:1001900090819460908394B3906F94BB95B39F705B
:1001A000282F207F922B95BB00000000000000004C
:1001B000000000000000000000000000000000003F
:1001C000000000000000000000000000000000002F
:1001D000000000000000000090819B7F90830000E1
:1001E000000000000000000000000000000000000F
:1001F00000000000000000000000000000000000FF
:1002000000000000000000000000000000009081DD
:100210009460908325B32F7030E1839FC001112437
:10022000822B85BB000000000000000000000000E1
:1002300000000000000000000000000000000000BE
:1002400000000000000000000000000000000000AE
:100250000000000080818B7F808384B38F7084BB1B
:1002600085B3806F85BB08958FE39FE10197F1F718
:1002700000C0000084B38F7084BB85B3806F85BBE2
:10028000E5E6F0E080818D7F8083808181608083DE
:100290008081846080830000000000000000000076
:1002A000000000000000000000000000000000004E
:1002B000000000000000000000000000000000003E
:1002C00000000000000093B380818B7F80830000DA
:1002D000000000000000000000000000000000001E
:1002E000000000000000000000000000000000000E
:1002F00000000000000000000000000000008081FD
:100300008460808300000000000000000000000006
:1003100000000000000000000000000000000000DD
:1003200000000000000000000000000000000000CD
:100330000000000023B322952F70892F807F9081C9
:100340009B7F9083822B0895EFE3FFE13197F1F7D4
:1003500000C00000E5E6F0E090819260908390811B
:100360009E7F908390819460908394B3906F94BBB0
:1003700095B39F70282F207F922B95BB0000000023
:10038000000000000000000000000000000000006D
:10039000000000000000000000000000000000005D
:1003A00000000000000000000000000090819B7F22
:1003B000908300000000000000000000000000002A
:1003C000000000000000000000000000000000002D
:1003D000000000000000000000000000000000001D
:1003E000000090819460908325B32F7030E1839F4B
:1003F000C0011124822B85BB00000000000000001A
:1004000000000000000000000000000000000000EC
:1004100000000000000000000000000000000000DC
:10042000000000000000000080818B7F808384B387
:100430008F7084BB85B3806F85BB08958FE39FE188
:100440000197F1F700C0000084B38F7084BB85B3BF
:10045000806F85BBE5E6F0E08081826080838081EB
:1004600081608083808184608083000000000000C0
:10047000000000000000000000000000000000007C
:10048000000000000000000000000000000000006C
:100490000000000000000000000093B380818B7F0B
:1004A0008083000000000000000000000000000049
:1004B000000000000000000000000000000000003C
:1004C000000000000000000000000000000000002C
:1004D0000000808184608083000000000000000034
:1004E000000000000000000000000000000000000C
:1004F00000000000000000000000000000000000FC
:10050000000000000000000023B322952F70892F07
:10051000807F90819B7F9083822B089582E00C9452
:10052000BA0081E00C94BA00623031F0633031F0EF
:10053000613029F4805C03C08C5E01C08C5A8068F5
:100540000C94BA00CF92DF92EF92FF921F93CF9359
:10055000DF93C82ED62F0E943401182F1F77DD0F8E
:10056000DD0FDD0FCC0CCC0CCC0CD12CE12CF12C04
:100570008EEBC80ED11C81E0E81EF11CC0E08D2F6F
:100580008C0F80640E94BA00EBBEF60187910E9436
:10059000A401CF5F8FEFC81AD80AE80AF80AC8305A
:1005A00071F7812F8068DF91CF911F91FF90EF90BD
:1005B000DF90CF900C94BA000E94960088E20E94CF
:1005C000BA0081E00E94BA002FEF8DEE92E0215038
:1005D00080409040E1F700C0000086E00E94BA0031
:1005E0008CE00E94BA0082E00E94BA0080E80E947B
:1005F000BA0060E080E00E94A20261E081E00E9417
:10060000A20262E082E00E94A20263E083E00E9414
:10061000A20264E084E00E94A20265E085E00E94FC
:10062000A20266E086E00E94A20267E087E00C94E6
:10063000A2020F931F93CF93DF93009759F0EC0121
:100640008C01060F111DC017D10721F089910E945E
:10065000A401F9CFDF91CF911F910F9108951F93BE
:10066000CF93DF93009761F0EC0110E0FE01E10F02
:10067000F11D8081882321F00E94A4011F5FF6CF25
:10068000DF91CF911F9108958F929F92AF92BF9269
:10069000CF92DF92EF92FF921F93CF93DF93142FAD
:1006A00046E0489F9001499F300D1124129FC001E0
:1006B000139F900D11240E942E046B01E12CF12C4C
:1006C000C701B60126E030E040E050E00E9442045D
:1006D000D62F812C912C5401C0E0C117E9F0D5012F
:1006E000C4010596A11DB11DC816D906EA06FB0670
:1006F00038F4C814D904EA04FB0420F480E003C0F1
:1007000085E001C08D2F0E94A401CF5F86E0880E96
:10071000911CA11CB11CE1CFDF91CF911F91FF90E3
:10072000EF90DF90CF90BF90AF909F908F90089503
:100730001BB888E18AB986E18093950010929000F9
:1007400087E089B908955D9BFECF8CB980E090E089
:1007500008955F9BFECF8CB190E008950F931F9397
:10076000CF93DF93EC018C010A501E4F89918823AF
:1007700039F060E070E00E94A303C017D107B1F721
:10078000DF91CF911F910F910895EF92FF920F93F8
:100790001F93CF93DF9300D000D0CDB7DEB720E317
:1007A00030E03A8329831C821B829E012F5F3F4FDA
:1007B00079018823A9F0F90120E030E0AAE06A2F4E
:1007C0000E942204905D9193A9014F5F5F4F88239F
:1007D00011F09A01F4CFF701E40FF51F108202C067
:1007E00020E030E02F5F3F4F8701020F131FE0161C
:1007F000F10641F060E070E0F80182918F010E9403
:10080000A303F5CF0F900F900F900F90DF91CF9132
:100810001F910F91FF90EF9008958FE084BBBC9AD9
:100820008AE683BF91E080E081BFEFE3FCE9319786
:10083000F1F700C00000890F2FEF280F2E3FA0F323
:100840009195F2CF991B79E004C0991F961708F093
:10085000961B881F7A95C9F780950895AA1BBB1B24
:1008600051E107C0AA1FBB1FA617B70710F0A61BB0
:10087000B70B881F991F5A95A9F780959095BC01D1
:10088000CD010895A1E21A2EAA1BBB1BFD010DC0CC
:10089000AA1FBB1FEE1FFF1FA217B307E407F50730
:1008A00020F0A21BB30BE40BF50B661F771F881F0C
:1008B000991F1A9469F760957095809590959B01A2
:0C08C000AC01BD01CF010895F894FFCFFA
:00000001FF
