:100000000C9446000C9450000C9450000C9450003A
:100010000C9450000C9450000C9450000C94500020
:100020000C9450000C9450000C9450000C94500010
:100030000C9450000C9450000C9450000C94500000
:100040000C9450000C9450000C9450000C945000F0
:100050000C9450000C9450000C9450000C945000E0
:100060000C9450000C9450000C9450000C945000D0
:100070000C9450000C9450000C9450000C945000C0
:100080000C9450000C9450000C94500011241FBE8E
:10009000CFEFD0E1DEBFCDBF0E9452000C949200A2
:1000A0000C9400008FE084BB12B815BA91E02FE0E9
:1000B00081B182958F703FEF380F323028F0843055
:1000C00019F0883009F0892F95B3922795BB8130BC
:1000D00041F43FEF44E39CE0315040409040E1F771
:1000E00013C0823041F43FEF49E698E1315040407F
:1000F0009040E1F709C0843059F43FEF4DE292E2BD
:10010000315040409040E1F700C00000982FD0CF20
:100110008830E1F73FEF43ED90E3315040409040AD
:08012000E1F7F2CFF894FFCFE4
:00000001FF
