:100000000C9446000C945D000C945D000C945D0013
:100010000C945D000C945D000C945D000C945D00EC
:100020000C945D000C945D000C945D000C945D00DC
:100030000C945D000C945D000C945D000C945D00CC
:100040000C945D000C945D000C945D000C945D00BC
:100050000C945D000C945D000C945D000C945D00AC
:100060000C945D000C945D000C945D000C945D009C
:100070000C945D000C945D000C945D000C945D008C
:100080000C945D000C945D000C945D0011241FBE67
:10009000CFEFD0E1DEBFCDBF11E0A0E0B1E0EAE6F6
:1000A000F1E000E00BBF02C007900D92AA30B1074B
:1000B000D9F70E945F000C94B3000C940000CF931A
:1000C000DF93CDB7DEB72A970FB6F894DEBF0FBE29
:1000D000CDBF8AE0E0E0F1E0DE01119601900D92E3
:1000E0008A95E1F78FEF8ABB12B890E080E03AE0A2
:1000F00021B122952F70921781F021B122952F7096
:10010000213011F48F5F03C0223009F48150632F36
:100110000E949900892F97FD89E0E1E0F0E0EC0F63
:10012000FD1FE80FF11D87FDFA9590819BBB922F73
:10013000DFCF87FB082E062687FD819567FD619539
:100140000E94A7000EF4919507FC81950895991BD4
:1001500079E004C0991F961708F0961B881F7A95BE
:0A016000C9F780950895F894FFCFC9
:0A016A003F065B4F666D7D077F6F57
:00000001FF
