:100000000C9446000C9465000C9465000C946500FB
:100010000C9465000C9465000C9465000C946500CC
:100020000C9465000C9465000C9467000C946500BA
:100030000C9465000C9465000C9465000C946500AC
:100040000C9465000C9465000C9465000C9465009C
:100050000C9465000C9465000C9465000C9465008C
:100060000C9465000C9465000C9465000C9465007C
:100070000C9465000C9465000C9465000C9465006C
:100080000C9465000C9465000C94650011241FBE4F
:10009000CFEFD0E1DEBFCDBF11E0A0E0B1E0E8E4FA
:1000A000F1E000E00BBF02C007900D92A230B10753
:1000B000D9F721E0A2E0B1E001C01D92A330B20760
:1000C000E1F70E947C000C94A2000C9400001F92A7
:1000D0000F920FB60F9211248F93F89480E784BD8E
:1000E000809102018F5F8093020178948F910F902D
:1000F0000FBE0F901F9018958FE084BB85E085BDE3
:1001000080E487BF789490E0809102018E31B1F451
:1001100080910001853060F4813011F491E002C0DB
:10012000992331F080910001880F8093000104C071
:1001300086958093000190E0109202018091000169
:0801400085BBE2CFF894FFCF6C
:020148000100B4
:00000001FF
