:100000000C9446000C9465000C9465000C946500FB
:100010000C9465000C9465000C9465000C946500CC
:100020000C9465000C9465000C9465000C946500BC
:100030000C948D000C9467000C947A000C9465006D
:100040000C9465000C9465000C9465000C9465009C
:100050000C9465000C9465000C9465000C9465008C
:100060000C9465000C9465000C9465000C9465007C
:100070000C9465000C9465000C9465000C9465006C
:100080000C9465000C9465000C94650011241FBE4F
:10009000CFEFD0E1DEBFCDBF11E0A0E0B1E0E2EBF9
:1000A000F1E000E00BBF02C007900D92A231B10752
:1000B000D9F721E0A2E1B1E001C01D92A331B2075E
:1000C000E1F70E94B5000C94D7000C9400001F9239
:1000D0000F920FB60F9211248F93F8948091000124
:1000E00081508093000178948F910F900FBE0F90F4
:1000F0001F9018951F920F920FB60F9211248F9395
:10010000F894809100018F5F8093000178948F9123
:100110000F900FBE0F901F9018951F920F920FB661
:100120000F9211240BB60F922F933F934F935F932F
:100130006F937F938F939F93AF93BF93EF93FF93AF
:100140000E947A00FF91EF91BF91AF919F918F91A3
:100150007F916F915F914F913F912F910F900BBEC7
:100160000F900FBE0F901F9018958FEF8ABB12B89B
:100170001FBC85E08EBD80E498E39BBD8ABD80E80E
:1001800090E799BD88BD8CE187BF7894809101018B
:100190008BBBE0910001F0E0EF5FFE4F80818BBBF5
:1001A000809100018B30A8F310920001F2CFF894F7
:0201B000FFCF7F
:1001B200013F065B4F666D7C077F67777C395E790E
:0201C20071804A
:00000001FF
