:100000000C9446000C9458000C9458000C94580022
:100010000C9458000C9458000C9458000C94580000
:100020000C9458000C9458000C9458000C945800F0
:100030000C9458000C9458000C9458000C945800E0
:100040000C945A000C9458000C9458000C945800CE
:100050000C9458000C9458000C9458000C945800C0
:100060000C9458000C9458000C9458000C945800B0
:100070000C9458000C9458000C9458000C945800A0
:100080000C9458000C9458000C94580011241FBE76
:10009000CFEFD0E1DEBFCDBF21E0A0E0B1E001C0F5
:1000A0001D92A230B207E1F70E946F000C948B0002
:1000B0000C9400001F920F920FB60F9211248F9391
:1000C000F89480E782BF809100018F5F80930001E8
:1000D00078948F910F900FBE0F901F9018958FE01E
:1000E00084BB87E083BF87B7816087BF78948091A6
:1000F0000001843661F4809101018F5F803118F432
:100100008093010102C010920101109200018091C0
:0A011000010185BBECCFF894FFCF8E
:00000001FF
