:100000000C9446000C9465000C9465000C946500FB
:100010000C9465000C9465000C9465000C946500CC
:100020000C9465000C9465000C9465000C946500BC
:100030000C9465000C9465000C9465000C946500AC
:100040000C9465000C9465000C9465000C9465009C
:100050000C9465000C9465000C9465000C9465008C
:100060000C9465000C9465000C9465000C9465007C
:100070000C9465000C9465000C9465000C9465006C
:100080000C9465000C9465000C94650011241FBE4F
:10009000CFEFD0E1DEBFCDBF11E0A0E0B1E0E8E3FB
:1000A000F1E000E00BBF02C007900D92A231B10752
:1000B000D9F721E0A2E1B1E001C01D92A431B2075D
:1000C000E1F70E946C000C949A000C9400005F9B76
:1000D000FECF8CB15F9A0895CF93DF93CDB7DEB793
:1000E00061970FB6F894DEBF0FBECDBF81E1E0E0AF
:1000F000F1E0DE01119601900D928A95E1F78FEF04
:100100008ABB1BB888E18AB986E18093950010927A
:10011000900087E089B90E94670090ED980F9A30AF
:10012000D0F7E1EDFFEFEC0FFD1FE80FF11D80812F
:080130008BBBF1CFF894FFCF67
:100138003F065B4F666D7C077F67777C395E797118
:02014800800035
:00000001FF
